{
  "_format": "hh-sol-artifact-1",
  "contractName": "Admin",
  "sourceName": "contracts/Admin.sol",
  "abi": [
    {
      "inputs": [],
      "stateMutability": "nonpayable",
      "type": "constructor"
    },
    {
      "anonymous": false,
      "inputs": [
        {
          "indexed": true,
          "internalType": "address",
          "name": "previousOwner",
          "type": "address"
        },
        {
          "indexed": true,
          "internalType": "address",
          "name": "newOwner",
          "type": "address"
        }
      ],
      "name": "OwnershipTransferred",
      "type": "event"
    },
    {
      "inputs": [
        {
          "internalType": "address",
          "name": "_newAdmin",
          "type": "address"
        }
      ],
      "name": "addAdmin",
      "outputs": [],
      "stateMutability": "nonpayable",
      "type": "function"
    },
    {
      "inputs": [
        {
          "internalType": "address",
          "name": "_newOwner",
          "type": "address"
        }
      ],
      "name": "designateNewOwner",
      "outputs": [],
      "stateMutability": "nonpayable",
      "type": "function"
    },
    {
      "inputs": [],
      "name": "getAllAdmins",
      "outputs": [
        {
          "internalType": "address[]",
          "name": "",
          "type": "address[]"
        }
      ],
      "stateMutability": "view",
      "type": "function"
    },
    {
      "inputs": [
        {
          "internalType": "address",
          "name": "_admin",
          "type": "address"
        }
      ],
      "name": "isAddressAdmin",
      "outputs": [
        {
          "internalType": "bool",
          "name": "",
          "type": "bool"
        }
      ],
      "stateMutability": "view",
      "type": "function"
    },
    {
      "inputs": [],
      "name": "isAdmin",
      "outputs": [
        {
          "internalType": "bool",
          "name": "",
          "type": "bool"
        }
      ],
      "stateMutability": "view",
      "type": "function"
    },
    {
      "inputs": [],
      "name": "owner",
      "outputs": [
        {
          "internalType": "address",
          "name": "",
          "type": "address"
        }
      ],
      "stateMutability": "view",
      "type": "function"
    },
    {
      "inputs": [
        {
          "internalType": "address",
          "name": "_admin",
          "type": "address"
        }
      ],
      "name": "removeAdmin",
      "outputs": [],
      "stateMutability": "nonpayable",
      "type": "function"
    },
    {
      "inputs": [],
      "name": "renounceOwnership",
      "outputs": [],
      "stateMutability": "nonpayable",
      "type": "function"
    },
    {
      "inputs": [
        {
          "internalType": "address",
          "name": "newOwner",
          "type": "address"
        }
      ],
      "name": "transferOwnership",
      "outputs": [],
      "stateMutability": "nonpayable",
      "type": "function"
    }
  ],
  "bytecode": "0x60806040523480156200001157600080fd5b5062000032620000266200004960201b60201c565b6200005160201b60201c565b62000043336200011560201b60201c565b62000595565b600033905090565b60008060009054906101000a900473ffffffffffffffffffffffffffffffffffffffff169050816000806101000a81548173ffffffffffffffffffffffffffffffffffffffff021916908373ffffffffffffffffffffffffffffffffffffffff1602179055508173ffffffffffffffffffffffffffffffffffffffff168173ffffffffffffffffffffffffffffffffffffffff167f8be0079c531659141344cd1fd0a4f28419497f9722a3daafe3b4186f6b6457e060405160405180910390a35050565b620001256200004960201b60201c565b73ffffffffffffffffffffffffffffffffffffffff166200014b6200037e60201b60201c565b73ffffffffffffffffffffffffffffffffffffffff1614620001a4576040517f08c379a00000000000000000000000000000000000000000000000000000000081526004016200019b9062000460565b60405180910390fd5b600073ffffffffffffffffffffffffffffffffffffffff168173ffffffffffffffffffffffffffffffffffffffff16141562000217576040517f08c379a00000000000000000000000000000000000000000000000000000000081526004016200020e906200043e565b60405180910390fd5b600160008273ffffffffffffffffffffffffffffffffffffffff1673ffffffffffffffffffffffffffffffffffffffff16815260200190815260200160002060009054906101000a900460ff1615620002a7576040517f08c379a00000000000000000000000000000000000000000000000000000000081526004016200029e906200041c565b60405180910390fd5b60018060008373ffffffffffffffffffffffffffffffffffffffff1673ffffffffffffffffffffffffffffffffffffffff16815260200190815260200160002060006101000a81548160ff0219169083151502179055506002819080600181540180825580915050600190039060005260206000200160009091909190916101000a81548173ffffffffffffffffffffffffffffffffffffffff021916908373ffffffffffffffffffffffffffffffffffffffff1602179055506003600081548092919062000376906200049d565b919050555050565b60008060009054906101000a900473ffffffffffffffffffffffffffffffffffffffff16905090565b6000620003b6600d8362000482565b9150620003c3826200051a565b602082019050919050565b6000620003dd60198362000482565b9150620003ea8262000543565b602082019050919050565b60006200040460208362000482565b915062000411826200056c565b602082019050919050565b600060208201905081810360008301526200043781620003a7565b9050919050565b600060208201905081810360008301526200045981620003ce565b9050919050565b600060208201905081810360008301526200047b81620003f5565b9050919050565b600082825260208201905092915050565b6000819050919050565b6000620004aa8262000493565b91507fffffffffffffffffffffffffffffffffffffffffffffffffffffffffffffffff821415620004e057620004df620004eb565b5b600182019050919050565b7f4e487b7100000000000000000000000000000000000000000000000000000000600052601160045260246000fd5b7f416c72656164792061646d696e00000000000000000000000000000000000000600082015250565b7f50726f76696465206120636f7272656374206164647265737300000000000000600082015250565b7f4f776e61626c653a2063616c6c6572206973206e6f7420746865206f776e6572600082015250565b61154080620005a56000396000f3fe608060405234801561001057600080fd5b50600436106100935760003560e01c80638e647c08116100665780638e647c08146100f8578063aa7f317714610114578063b6db75a014610144578063e9523c9714610162578063f2fde38b1461018057610093565b80631785f53c1461009857806370480275146100b4578063715018a6146100d05780638da5cb5b146100da575b600080fd5b6100b260048036038101906100ad9190610e45565b61019c565b005b6100ce60048036038101906100c99190610e45565b6103ee565b005b6100d861063c565b005b6100e26106c4565b6040516100ef919061100a565b60405180910390f35b610112600480360381019061010d9190610e45565b6106ed565b005b61012e60048036038101906101299190610e45565b6107d0565b60405161013b9190611047565b60405180910390f35b61014c6108b2565b6040516101599190611047565b60405180910390f35b61016a610906565b6040516101779190611025565b60405180910390f35b61019a60048036038101906101959190610e45565b610a0b565b005b6101a4610b03565b73ffffffffffffffffffffffffffffffffffffffff166101c26106c4565b73ffffffffffffffffffffffffffffffffffffffff1614610218576040517f08c379a000000000000000000000000000000000000000000000000000000000815260040161020f906110e2565b60405180910390fd5b600073ffffffffffffffffffffffffffffffffffffffff168173ffffffffffffffffffffffffffffffffffffffff161415610288576040517f08c379a000000000000000000000000000000000000000000000000000000000815260040161027f906110c2565b60405180910390fd5b6102906106c4565b73ffffffffffffffffffffffffffffffffffffffff168173ffffffffffffffffffffffffffffffffffffffff1614156102fe576040517f08c379a00000000000000000000000000000000000000000000000000000000081526004016102f590611102565b60405180910390fd5b600160008273ffffffffffffffffffffffffffffffffffffffff1673ffffffffffffffffffffffffffffffffffffffff16815260200190815260200160002060009054906101000a900460ff1661038a576040517f08c379a0000000000000000000000000000000000000000000000000000000008152600401610381906110a2565b60405180910390fd5b6000600160008373ffffffffffffffffffffffffffffffffffffffff1673ffffffffffffffffffffffffffffffffffffffff16815260200190815260200160002060006101000a81548160ff0219169083151502179055506103eb81610b0b565b50565b6103f6610b03565b73ffffffffffffffffffffffffffffffffffffffff166104146106c4565b73ffffffffffffffffffffffffffffffffffffffff161461046a576040517f08c379a0000000000000000000000000000000000000000000000000000000008152600401610461906110e2565b60405180910390fd5b600073ffffffffffffffffffffffffffffffffffffffff168173ffffffffffffffffffffffffffffffffffffffff1614156104da576040517f08c379a00000000000000000000000000000000000000000000000000000000081526004016104d1906110c2565b60405180910390fd5b600160008273ffffffffffffffffffffffffffffffffffffffff1673ffffffffffffffffffffffffffffffffffffffff16815260200190815260200160002060009054906101000a900460ff1615610567576040517f08c379a000000000000000000000000000000000000000000000000000000000815260040161055e90611062565b60405180910390fd5b60018060008373ffffffffffffffffffffffffffffffffffffffff1673ffffffffffffffffffffffffffffffffffffffff16815260200190815260200160002060006101000a81548160ff0219169083151502179055506002819080600181540180825580915050600190039060005260206000200160009091909190916101000a81548173ffffffffffffffffffffffffffffffffffffffff021916908373ffffffffffffffffffffffffffffffffffffffff1602179055506003600081548092919061063490611232565b919050555050565b610644610b03565b73ffffffffffffffffffffffffffffffffffffffff166106626106c4565b73ffffffffffffffffffffffffffffffffffffffff16146106b8576040517f08c379a00000000000000000000000000000000000000000000000000000000081526004016106af906110e2565b60405180910390fd5b6106c26000610d6c565b565b60008060009054906101000a900473ffffffffffffffffffffffffffffffffffffffff16905090565b6106f5610b03565b73ffffffffffffffffffffffffffffffffffffffff166107136106c4565b73ffffffffffffffffffffffffffffffffffffffff1614610769576040517f08c379a0000000000000000000000000000000000000000000000000000000008152600401610760906110e2565b60405180910390fd5b600160008273ffffffffffffffffffffffffffffffffffffffff1673ffffffffffffffffffffffffffffffffffffffff16815260200190815260200160002060009054906101000a900460ff166107c4576107c3816103ee565b5b6107cd81610a0b565b50565b6000600160003373ffffffffffffffffffffffffffffffffffffffff1673ffffffffffffffffffffffffffffffffffffffff16815260200190815260200160002060009054906101000a900460ff1661085e576040517f08c379a0000000000000000000000000000000000000000000000000000000008152600401610855906110a2565b60405180910390fd5b600160008373ffffffffffffffffffffffffffffffffffffffff1673ffffffffffffffffffffffffffffffffffffffff16815260200190815260200160002060009054906101000a900460ff169050919050565b6000600160003373ffffffffffffffffffffffffffffffffffffffff1673ffffffffffffffffffffffffffffffffffffffff16815260200190815260200160002060009054906101000a900460ff16905090565b6060600060035467ffffffffffffffff81111561092657610925611308565b5b6040519080825280602002602001820160405280156109545781602001602082028036833780820191505090505b50905060005b600354811015610a035760028181548110610978576109776112d9565b5b9060005260206000200160009054906101000a900473ffffffffffffffffffffffffffffffffffffffff168282815181106109b6576109b56112d9565b5b602002602001019073ffffffffffffffffffffffffffffffffffffffff16908173ffffffffffffffffffffffffffffffffffffffff168152505080806109fb90611232565b91505061095a565b508091505090565b610a13610b03565b73ffffffffffffffffffffffffffffffffffffffff16610a316106c4565b73ffffffffffffffffffffffffffffffffffffffff1614610a87576040517f08c379a0000000000000000000000000000000000000000000000000000000008152600401610a7e906110e2565b60405180910390fd5b600073ffffffffffffffffffffffffffffffffffffffff168173ffffffffffffffffffffffffffffffffffffffff161415610af7576040517f08c379a0000000000000000000000000000000000000000000000000000000008152600401610aee90611082565b60405180910390fd5b610b0081610d6c565b50565b600033905090565b610b13610b03565b73ffffffffffffffffffffffffffffffffffffffff16610b316106c4565b73ffffffffffffffffffffffffffffffffffffffff1614610b87576040517f08c379a0000000000000000000000000000000000000000000000000000000008152600401610b7e906110e2565b60405180910390fd5b6000805b600354811015610d275760028181548110610ba957610ba86112d9565b5b9060005260206000200160009054906101000a900473ffffffffffffffffffffffffffffffffffffffff1673ffffffffffffffffffffffffffffffffffffffff168373ffffffffffffffffffffffffffffffffffffffff161415610d145760026001600354610c18919061118c565b81548110610c2957610c286112d9565b5b9060005260206000200160009054906101000a900473ffffffffffffffffffffffffffffffffffffffff1660028281548110610c6857610c676112d9565b5b9060005260206000200160006101000a81548173ffffffffffffffffffffffffffffffffffffffff021916908373ffffffffffffffffffffffffffffffffffffffff1602179055506002805480610cc257610cc16112aa565b5b6001900381819060005260206000200160006101000a81549073ffffffffffffffffffffffffffffffffffffffff0219169055905560036000815480929190610d0a90611208565b9190505550600191505b8080610d1f90611232565b915050610b8b565b5080610d68576040517f08c379a0000000000000000000000000000000000000000000000000000000008152600401610d5f90611122565b60405180910390fd5b5050565b60008060009054906101000a900473ffffffffffffffffffffffffffffffffffffffff169050816000806101000a81548173ffffffffffffffffffffffffffffffffffffffff021916908373ffffffffffffffffffffffffffffffffffffffff1602179055508173ffffffffffffffffffffffffffffffffffffffff168173ffffffffffffffffffffffffffffffffffffffff167f8be0079c531659141344cd1fd0a4f28419497f9722a3daafe3b4186f6b6457e060405160405180910390a35050565b600081359050610e3f816114f3565b92915050565b600060208284031215610e5b57610e5a611337565b5b6000610e6984828501610e30565b91505092915050565b6000610e7e8383610e8a565b60208301905092915050565b610e93816111c0565b82525050565b610ea2816111c0565b82525050565b6000610eb382611152565b610ebd818561116a565b9350610ec883611142565b8060005b83811015610ef9578151610ee08882610e72565b9750610eeb8361115d565b925050600181019050610ecc565b5085935050505092915050565b610f0f816111d2565b82525050565b6000610f22600d8361117b565b9150610f2d8261133c565b602082019050919050565b6000610f4560268361117b565b9150610f5082611365565b604082019050919050565b6000610f68600c8361117b565b9150610f73826113b4565b602082019050919050565b6000610f8b60198361117b565b9150610f96826113dd565b602082019050919050565b6000610fae60208361117b565b9150610fb982611406565b602082019050919050565b6000610fd1604b8361117b565b9150610fdc8261142f565b606082019050919050565b6000610ff460238361117b565b9150610fff826114a4565b604082019050919050565b600060208201905061101f6000830184610e99565b92915050565b6000602082019050818103600083015261103f8184610ea8565b905092915050565b600060208201905061105c6000830184610f06565b92915050565b6000602082019050818103600083015261107b81610f15565b9050919050565b6000602082019050818103600083015261109b81610f38565b9050919050565b600060208201905081810360008301526110bb81610f5b565b9050919050565b600060208201905081810360008301526110db81610f7e565b9050919050565b600060208201905081810360008301526110fb81610fa1565b9050919050565b6000602082019050818103600083015261111b81610fc4565b9050919050565b6000602082019050818103600083015261113b81610fe7565b9050919050565b6000819050602082019050919050565b600081519050919050565b6000602082019050919050565b600082825260208201905092915050565b600082825260208201905092915050565b6000611197826111fe565b91506111a2836111fe565b9250828210156111b5576111b461127b565b5b828203905092915050565b60006111cb826111de565b9050919050565b60008115159050919050565b600073ffffffffffffffffffffffffffffffffffffffff82169050919050565b6000819050919050565b6000611213826111fe565b915060008214156112275761122661127b565b5b600182039050919050565b600061123d826111fe565b91507fffffffffffffffffffffffffffffffffffffffffffffffffffffffffffffffff8214156112705761126f61127b565b5b600182019050919050565b7f4e487b7100000000000000000000000000000000000000000000000000000000600052601160045260246000fd5b7f4e487b7100000000000000000000000000000000000000000000000000000000600052603160045260246000fd5b7f4e487b7100000000000000000000000000000000000000000000000000000000600052603260045260246000fd5b7f4e487b7100000000000000000000000000000000000000000000000000000000600052604160045260246000fd5b600080fd5b7f416c72656164792061646d696e00000000000000000000000000000000000000600082015250565b7f4f776e61626c653a206e6577206f776e657220697320746865207a65726f206160008201527f6464726573730000000000000000000000000000000000000000000000000000602082015250565b7f4e6f7420616e2061646d696e0000000000000000000000000000000000000000600082015250565b7f50726f76696465206120636f7272656374206164647265737300000000000000600082015250565b7f4f776e61626c653a2063616c6c6572206973206e6f7420746865206f776e6572600082015250565b7f43616e6e6f742072656d6f766520636f6e7472616374206f776e65722066726f60008201527f6d2061646d696e6973747261746f72732c207472616e73666572206f776e657260208201527f73686970206265666f7265000000000000000000000000000000000000000000604082015250565b7f546563686e6963616c206572726f72203a2061646d696e206e6f742072656d6f60008201527f7665640000000000000000000000000000000000000000000000000000000000602082015250565b6114fc816111c0565b811461150757600080fd5b5056fea26469706673582212206d504e97a53d1a3e975eca3e4dc26cb8b6658082ac26720c4441f83ee2a4997a64736f6c63430008070033",
  "linkReferences": {},
  "deployedLinkReferences": {}
}