{
  "_format": "hh-sol-artifact-1",
  "contractName": "Election",
  "sourceName": "contracts/Election.sol",
  "abi": [
    {
      "inputs": [],
      "stateMutability": "nonpayable",
      "type": "constructor"
    },
    {
      "anonymous": false,
      "inputs": [
        {
          "indexed": true,
          "internalType": "address",
          "name": "_addresOf",
          "type": "address"
        },
        {
          "indexed": false,
          "internalType": "bool",
          "name": "_newStatus",
          "type": "bool"
        }
      ],
      "name": "ChangeSessionStatus",
      "type": "event"
    },
    {
      "anonymous": false,
      "inputs": [
        {
          "indexed": true,
          "internalType": "address",
          "name": "previousOwner",
          "type": "address"
        },
        {
          "indexed": true,
          "internalType": "address",
          "name": "newOwner",
          "type": "address"
        }
      ],
      "name": "OwnershipTransferred",
      "type": "event"
    },
    {
      "inputs": [
        {
          "internalType": "address",
          "name": "_newAdmin",
          "type": "address"
        }
      ],
      "name": "addAdmin",
      "outputs": [],
      "stateMutability": "nonpayable",
      "type": "function"
    },
    {
      "inputs": [
        {
          "internalType": "string",
          "name": "_name",
          "type": "string"
        }
      ],
      "name": "addCandidate",
      "outputs": [],
      "stateMutability": "nonpayable",
      "type": "function"
    },
    {
      "inputs": [
        {
          "internalType": "address",
          "name": "_newOwner",
          "type": "address"
        }
      ],
      "name": "designateNewOwner",
      "outputs": [],
      "stateMutability": "nonpayable",
      "type": "function"
    },
    {
      "inputs": [],
      "name": "getAllAdmins",
      "outputs": [
        {
          "internalType": "address[]",
          "name": "",
          "type": "address[]"
        }
      ],
      "stateMutability": "view",
      "type": "function"
    },
    {
      "inputs": [
        {
          "internalType": "uint256",
          "name": "_candidateId",
          "type": "uint256"
        }
      ],
      "name": "getCandidateNameById",
      "outputs": [
        {
          "internalType": "string",
          "name": "",
          "type": "string"
        }
      ],
      "stateMutability": "view",
      "type": "function"
    },
    {
      "inputs": [],
      "name": "getCandidates",
      "outputs": [
        {
          "internalType": "string[]",
          "name": "",
          "type": "string[]"
        }
      ],
      "stateMutability": "view",
      "type": "function"
    },
    {
      "inputs": [],
      "name": "getResults",
      "outputs": [
        {
          "components": [
            {
              "internalType": "string",
              "name": "name",
              "type": "string"
            },
            {
              "internalType": "uint256",
              "name": "voteCount",
              "type": "uint256"
            }
          ],
          "internalType": "struct Election.Candidate[]",
          "name": "",
          "type": "tuple[]"
        }
      ],
      "stateMutability": "view",
      "type": "function"
    },
    {
      "inputs": [],
      "name": "getWinner",
      "outputs": [
        {
          "components": [
            {
              "internalType": "string",
              "name": "name",
              "type": "string"
            },
            {
              "internalType": "uint256",
              "name": "voteCount",
              "type": "uint256"
            }
          ],
          "internalType": "struct Election.Candidate",
          "name": "_winner",
          "type": "tuple"
        }
      ],
      "stateMutability": "view",
      "type": "function"
    },
    {
      "inputs": [
        {
          "internalType": "address",
          "name": "_admin",
          "type": "address"
        }
      ],
      "name": "isAddressAdmin",
      "outputs": [
        {
          "internalType": "bool",
          "name": "",
          "type": "bool"
        }
      ],
      "stateMutability": "view",
      "type": "function"
    },
    {
      "inputs": [],
      "name": "isAdmin",
      "outputs": [
        {
          "internalType": "bool",
          "name": "",
          "type": "bool"
        }
      ],
      "stateMutability": "view",
      "type": "function"
    },
    {
      "inputs": [],
      "name": "nbCandidates",
      "outputs": [
        {
          "internalType": "uint256",
          "name": "",
          "type": "uint256"
        }
      ],
      "stateMutability": "view",
      "type": "function"
    },
    {
      "inputs": [],
      "name": "owner",
      "outputs": [
        {
          "internalType": "address",
          "name": "",
          "type": "address"
        }
      ],
      "stateMutability": "view",
      "type": "function"
    },
    {
      "inputs": [
        {
          "internalType": "address",
          "name": "_admin",
          "type": "address"
        }
      ],
      "name": "removeAdmin",
      "outputs": [],
      "stateMutability": "nonpayable",
      "type": "function"
    },
    {
      "inputs": [
        {
          "internalType": "uint256",
          "name": "_candidateId",
          "type": "uint256"
        }
      ],
      "name": "removeCandidate",
      "outputs": [],
      "stateMutability": "nonpayable",
      "type": "function"
    },
    {
      "inputs": [],
      "name": "renounceOwnership",
      "outputs": [],
      "stateMutability": "nonpayable",
      "type": "function"
    },
    {
      "inputs": [],
      "name": "session",
      "outputs": [
        {
          "internalType": "bool",
          "name": "",
          "type": "bool"
        }
      ],
      "stateMutability": "view",
      "type": "function"
    },
    {
      "inputs": [
        {
          "internalType": "bool",
          "name": "_status",
          "type": "bool"
        }
      ],
      "name": "setSession",
      "outputs": [],
      "stateMutability": "nonpayable",
      "type": "function"
    },
    {
      "inputs": [
        {
          "internalType": "address",
          "name": "newOwner",
          "type": "address"
        }
      ],
      "name": "transferOwnership",
      "outputs": [],
      "stateMutability": "nonpayable",
      "type": "function"
    },
    {
      "inputs": [
        {
          "internalType": "uint256",
          "name": "_candidateId",
          "type": "uint256"
        }
      ],
      "name": "vote",
      "outputs": [],
      "stateMutability": "nonpayable",
      "type": "function"
    },
    {
      "inputs": [
        {
          "internalType": "address",
          "name": "",
          "type": "address"
        }
      ],
      "name": "voters",
      "outputs": [
        {
          "internalType": "bool",
          "name": "",
          "type": "bool"
        }
      ],
      "stateMutability": "view",
      "type": "function"
    }
  ],
  "bytecode": "0x60806040526000600760006101000a81548160ff0219169083151502179055503480156200002c57600080fd5b506200004d62000041620000b060201b60201c565b620000b860201b60201c565b6200005e336200017c60201b60201c565b620000aa6040518060400160405280601581526020017f436f6e7472616374206c61756e6368656420627920000000000000000000000081525033620003e560201b62001a8a1760201c565b620007d7565b600033905090565b60008060009054906101000a900473ffffffffffffffffffffffffffffffffffffffff169050816000806101000a81548173ffffffffffffffffffffffffffffffffffffffff021916908373ffffffffffffffffffffffffffffffffffffffff1602179055508173ffffffffffffffffffffffffffffffffffffffff168173ffffffffffffffffffffffffffffffffffffffff167f8be0079c531659141344cd1fd0a4f28419497f9722a3daafe3b4186f6b6457e060405160405180910390a35050565b6200018c620000b060201b60201c565b73ffffffffffffffffffffffffffffffffffffffff16620001b26200048b60201b60201c565b73ffffffffffffffffffffffffffffffffffffffff16146200020b576040517f08c379a000000000000000000000000000000000000000000000000000000000815260040162000202906200061c565b60405180910390fd5b600073ffffffffffffffffffffffffffffffffffffffff168173ffffffffffffffffffffffffffffffffffffffff1614156200027e576040517f08c379a00000000000000000000000000000000000000000000000000000000081526004016200027590620005fa565b60405180910390fd5b600160008273ffffffffffffffffffffffffffffffffffffffff1673ffffffffffffffffffffffffffffffffffffffff16815260200190815260200160002060009054906101000a900460ff16156200030e576040517f08c379a00000000000000000000000000000000000000000000000000000000081526004016200030590620005d8565b60405180910390fd5b60018060008373ffffffffffffffffffffffffffffffffffffffff1673ffffffffffffffffffffffffffffffffffffffff16815260200190815260200160002060006101000a81548160ff0219169083151502179055506002819080600181540180825580915050600190039060005260206000200160009091909190916101000a81548173ffffffffffffffffffffffffffffffffffffffff021916908373ffffffffffffffffffffffffffffffffffffffff16021790555060036000815480929190620003dd90620006ce565b919050555050565b620004878282604051602401620003fe929190620005a4565b6040516020818303038152906040527f319af333000000000000000000000000000000000000000000000000000000007bffffffffffffffffffffffffffffffffffffffffffffffffffffffff19166020820180517bffffffffffffffffffffffffffffffffffffffffffffffffffffffff8381831617835250505050620004b460201b60201c565b5050565b60008060009054906101000a900473ffffffffffffffffffffffffffffffffffffffff16905090565b60008151905060006a636f6e736f6c652e6c6f679050602083016000808483855afa5050505050565b620004e8816200065a565b82525050565b6000620004fb826200063e565b62000507818562000649565b93506200051981856020860162000698565b62000524816200074b565b840191505092915050565b60006200053e600d8362000649565b91506200054b826200075c565b602082019050919050565b60006200056560198362000649565b9150620005728262000785565b602082019050919050565b60006200058c60208362000649565b91506200059982620007ae565b602082019050919050565b60006040820190508181036000830152620005c08185620004ee565b9050620005d16020830184620004dd565b9392505050565b60006020820190508181036000830152620005f3816200052f565b9050919050565b60006020820190508181036000830152620006158162000556565b9050919050565b6000602082019050818103600083015262000637816200057d565b9050919050565b600081519050919050565b600082825260208201905092915050565b600062000667826200066e565b9050919050565b600073ffffffffffffffffffffffffffffffffffffffff82169050919050565b6000819050919050565b60005b83811015620006b85780820151818401526020810190506200069b565b83811115620006c8576000848401525b50505050565b6000620006db826200068e565b91507fffffffffffffffffffffffffffffffffffffffffffffffffffffffffffffffff8214156200071157620007106200071c565b5b600182019050919050565b7f4e487b7100000000000000000000000000000000000000000000000000000000600052601160045260246000fd5b6000601f19601f8301169050919050565b7f416c72656164792061646d696e00000000000000000000000000000000000000600082015250565b7f50726f76696465206120636f7272656374206164647265737300000000000000600082015250565b7f4f776e61626c653a2063616c6c6572206973206e6f7420746865206f776e6572600082015250565b61310f80620007e76000396000f3fe608060405234801561001057600080fd5b506004361061012c5760003560e01c80638da5cb5b116100ad578063ae0a937f11610071578063ae0a937f146102f7578063b6db75a014610327578063e9523c9714610345578063f2fde38b14610363578063f66567341461037f5761012c565b80638da5cb5b1461023f5780638e647c081461025d5780638e7ea5b214610279578063a3ec138d14610297578063aa7f3177146102c75761012c565b80634717f97c116100f45780634717f97c146101bf5780635e3568b8146101dd57806370480275146101fb578063715018a61461021757806382e621f0146102215761012c565b80630121b93f1461013157806306a49fce1461014d57806309e9d7e21461016b5780631785f53c14610187578063462e91ec146101a3575b600080fd5b61014b600480360381019061014691906121f4565b61039b565b005b61015561063f565b6040516101629190612707565b60405180910390f35b610185600480360381019061018091906121f4565b610789565b005b6101a1600480360381019061019c9190612151565b610938565b005b6101bd60048036038101906101b891906121ab565b610b8a565b005b6101c7610c9b565b6040516101d49190612729565b60405180910390f35b6101e5610e9b565b6040516101f2919061274b565b60405180910390f35b61021560048036038101906102109190612151565b610eae565b005b61021f6110fc565b005b610229611184565b60405161023691906129d1565b60405180910390f35b61024761118a565b60405161025491906126ca565b60405180910390f35b61027760048036038101906102729190612151565b6111b3565b005b610281611296565b60405161028e91906129af565b60405180910390f35b6102b160048036038101906102ac9190612151565b6114ed565b6040516102be919061274b565b60405180910390f35b6102e160048036038101906102dc9190612151565b61150d565b6040516102ee919061274b565b60405180910390f35b610311600480360381019061030c91906121f4565b6115ef565b60405161031e9190612766565b60405180910390f35b61032f6116ec565b60405161033c919061274b565b60405180910390f35b61034d611740565b60405161035a91906126e5565b60405180910390f35b61037d60048036038101906103789190612151565b611845565b005b6103996004803603810190610394919061217e565b61193d565b005b600760009054906101000a900460ff166103ea576040517f08c379a00000000000000000000000000000000000000000000000000000000081526004016103e1906128ef565b60405180910390fd5b80806006541161042f576040517f08c379a00000000000000000000000000000000000000000000000000000000081526004016104269061296f565b60405180910390fd5b600560003373ffffffffffffffffffffffffffffffffffffffff1673ffffffffffffffffffffffffffffffffffffffff16815260200190815260200160002060009054906101000a900460ff16156104bc576040517f08c379a00000000000000000000000000000000000000000000000000000000081526004016104b3906128af565b60405180910390fd5b6001600560003373ffffffffffffffffffffffffffffffffffffffff1673ffffffffffffffffffffffffffffffffffffffff16815260200190815260200160002060006101000a81548160ff0219169083151502179055506004828154811061052857610527612d3b565b5b9060005260206000209060020201600101600081548092919061054a90612c65565b919050555061063b6040518060400160405280601681526020017f566f74656420666f722063616e646964617465203a20000000000000000000008152506004848154811061059c5761059b612d3b565b5b906000526020600020906002020160000180546105b890612c02565b80601f01602080910402602001604051908101604052809291908181526020018280546105e490612c02565b80156106315780601f1061060657610100808354040283529160200191610631565b820191906000526020600020905b81548152906001019060200180831161061457829003601f168201915b5050505050611b26565b5050565b6060600060065467ffffffffffffffff81111561065f5761065e612d6a565b5b60405190808252806020026020018201604052801561069257816020015b606081526020019060019003908161067d5790505b50905060005b60065481101561078157600481815481106106b6576106b5612d3b565b5b906000526020600020906002020160000180546106d290612c02565b80601f01602080910402602001604051908101604052809291908181526020018280546106fe90612c02565b801561074b5780601f106107205761010080835404028352916020019161074b565b820191906000526020600020905b81548152906001019060200180831161072e57829003601f168201915b505050505082828151811061076357610762612d3b565b5b6020026020010181905250808061077990612c65565b915050610698565b508091505090565b600160003373ffffffffffffffffffffffffffffffffffffffff1673ffffffffffffffffffffffffffffffffffffffff16815260200190815260200160002060009054906101000a900460ff16610815576040517f08c379a000000000000000000000000000000000000000000000000000000000815260040161080c9061284f565b60405180910390fd5b80806006541161085a576040517f08c379a00000000000000000000000000000000000000000000000000000000081526004016108519061296f565b60405180910390fd5b6004600160065461086b9190612b1a565b8154811061087c5761087b612d3b565b5b90600052602060002090600202016004838154811061089e5761089d612d3b565b5b906000526020600020906002020160008201816000019080546108c090612c02565b6108cb929190611f18565b506001820154816001015590505060048054806108eb576108ea612d0c565b5b6001900381819060005260206000209060020201600080820160006109109190611fa5565b6001820160009055505090556006600081548092919061092f90612bd8565b91905055505050565b610940611bc2565b73ffffffffffffffffffffffffffffffffffffffff1661095e61118a565b73ffffffffffffffffffffffffffffffffffffffff16146109b4576040517f08c379a00000000000000000000000000000000000000000000000000000000081526004016109ab906128cf565b60405180910390fd5b600073ffffffffffffffffffffffffffffffffffffffff168173ffffffffffffffffffffffffffffffffffffffff161415610a24576040517f08c379a0000000000000000000000000000000000000000000000000000000008152600401610a1b9061288f565b60405180910390fd5b610a2c61118a565b73ffffffffffffffffffffffffffffffffffffffff168173ffffffffffffffffffffffffffffffffffffffff161415610a9a576040517f08c379a0000000000000000000000000000000000000000000000000000000008152600401610a919061292f565b60405180910390fd5b600160008273ffffffffffffffffffffffffffffffffffffffff1673ffffffffffffffffffffffffffffffffffffffff16815260200190815260200160002060009054906101000a900460ff16610b26576040517f08c379a0000000000000000000000000000000000000000000000000000000008152600401610b1d9061284f565b60405180910390fd5b6000600160008373ffffffffffffffffffffffffffffffffffffffff1673ffffffffffffffffffffffffffffffffffffffff16815260200190815260200160002060006101000a81548160ff021916908315150217905550610b8781611bca565b50565b600160003373ffffffffffffffffffffffffffffffffffffffff1673ffffffffffffffffffffffffffffffffffffffff16815260200190815260200160002060009054906101000a900460ff16610c16576040517f08c379a0000000000000000000000000000000000000000000000000000000008152600401610c0d9061284f565b60405180910390fd5b60046040518060400160405280838152602001600081525090806001815401808255809150506001900390600052602060002090600202016000909190919091506000820151816000019080519060200190610c73929190611fe5565b5060208201518160010155505060066000815480929190610c9390612c65565b919050555050565b6060600760009054906101000a900460ff1615610ced576040517f08c379a0000000000000000000000000000000000000000000000000000000008152600401610ce49061286f565b60405180910390fd5b600060065411610d32576040517f08c379a0000000000000000000000000000000000000000000000000000000008152600401610d299061282f565b60405180910390fd5b600060065467ffffffffffffffff811115610d5057610d4f612d6a565b5b604051908082528060200260200182016040528015610d8957816020015b610d7661206b565b815260200190600190039081610d6e5790505b50905060005b600654811015610e935760048181548110610dad57610dac612d3b565b5b9060005260206000209060020201604051806040016040529081600082018054610dd690612c02565b80601f0160208091040260200160405190810160405280929190818152602001828054610e0290612c02565b8015610e4f5780601f10610e2457610100808354040283529160200191610e4f565b820191906000526020600020905b815481529060010190602001808311610e3257829003601f168201915b50505050508152602001600182015481525050828281518110610e7557610e74612d3b565b5b60200260200101819052508080610e8b90612c65565b915050610d8f565b508091505090565b600760009054906101000a900460ff1681565b610eb6611bc2565b73ffffffffffffffffffffffffffffffffffffffff16610ed461118a565b73ffffffffffffffffffffffffffffffffffffffff1614610f2a576040517f08c379a0000000000000000000000000000000000000000000000000000000008152600401610f21906128cf565b60405180910390fd5b600073ffffffffffffffffffffffffffffffffffffffff168173ffffffffffffffffffffffffffffffffffffffff161415610f9a576040517f08c379a0000000000000000000000000000000000000000000000000000000008152600401610f919061288f565b60405180910390fd5b600160008273ffffffffffffffffffffffffffffffffffffffff1673ffffffffffffffffffffffffffffffffffffffff16815260200190815260200160002060009054906101000a900460ff1615611027576040517f08c379a000000000000000000000000000000000000000000000000000000000815260040161101e906127ef565b60405180910390fd5b60018060008373ffffffffffffffffffffffffffffffffffffffff1673ffffffffffffffffffffffffffffffffffffffff16815260200190815260200160002060006101000a81548160ff0219169083151502179055506002819080600181540180825580915050600190039060005260206000200160009091909190916101000a81548173ffffffffffffffffffffffffffffffffffffffff021916908373ffffffffffffffffffffffffffffffffffffffff160217905550600360008154809291906110f490612c65565b919050555050565b611104611bc2565b73ffffffffffffffffffffffffffffffffffffffff1661112261118a565b73ffffffffffffffffffffffffffffffffffffffff1614611178576040517f08c379a000000000000000000000000000000000000000000000000000000000815260040161116f906128cf565b60405180910390fd5b6111826000611e2b565b565b60065481565b60008060009054906101000a900473ffffffffffffffffffffffffffffffffffffffff16905090565b6111bb611bc2565b73ffffffffffffffffffffffffffffffffffffffff166111d961118a565b73ffffffffffffffffffffffffffffffffffffffff161461122f576040517f08c379a0000000000000000000000000000000000000000000000000000000008152600401611226906128cf565b60405180910390fd5b600160008273ffffffffffffffffffffffffffffffffffffffff1673ffffffffffffffffffffffffffffffffffffffff16815260200190815260200160002060009054906101000a900460ff1661128a5761128981610eae565b5b61129381611845565b50565b61129e61206b565b600760009054906101000a900460ff16156112ee576040517f08c379a00000000000000000000000000000000000000000000000000000000081526004016112e59061286f565b60405180910390fd5b600060065411611333576040517f08c379a000000000000000000000000000000000000000000000000000000000815260040161132a9061282f565b60405180910390fd5b61133b61206b565b60005b60065481101561148d5760006004828154811061135e5761135d612d3b565b5b9060005260206000209060020201600101541180156113a6575082602001516004828154811061139157611390612d3b565b5b90600052602060002090600202016001015410155b1561147a57829150600481815481106113c2576113c1612d3b565b5b90600052602060002090600202016040518060400160405290816000820180546113eb90612c02565b80601f016020809104026020016040519081016040528092919081815260200182805461141790612c02565b80156114645780601f1061143957610100808354040283529160200191611464565b820191906000526020600020905b81548152906001019060200180831161144757829003601f168201915b5050505050815260200160018201548152505092505b808061148590612c65565b91505061133e565b50600082602001511180156114a9575081602001518160200151145b156114e9576040517f08c379a00000000000000000000000000000000000000000000000000000000081526004016114e09061298f565b60405180910390fd5b5090565b60056020528060005260406000206000915054906101000a900460ff1681565b6000600160003373ffffffffffffffffffffffffffffffffffffffff1673ffffffffffffffffffffffffffffffffffffffff16815260200190815260200160002060009054906101000a900460ff1661159b576040517f08c379a00000000000000000000000000000000000000000000000000000000081526004016115929061284f565b60405180910390fd5b600160008373ffffffffffffffffffffffffffffffffffffffff1673ffffffffffffffffffffffffffffffffffffffff16815260200190815260200160002060009054906101000a900460ff169050919050565b6060818060065411611636576040517f08c379a000000000000000000000000000000000000000000000000000000000815260040161162d9061296f565b60405180910390fd5b6004838154811061164a57611649612d3b565b5b9060005260206000209060020201600001805461166690612c02565b80601f016020809104026020016040519081016040528092919081815260200182805461169290612c02565b80156116df5780601f106116b4576101008083540402835291602001916116df565b820191906000526020600020905b8154815290600101906020018083116116c257829003601f168201915b5050505050915050919050565b6000600160003373ffffffffffffffffffffffffffffffffffffffff1673ffffffffffffffffffffffffffffffffffffffff16815260200190815260200160002060009054906101000a900460ff16905090565b6060600060035467ffffffffffffffff8111156117605761175f612d6a565b5b60405190808252806020026020018201604052801561178e5781602001602082028036833780820191505090505b50905060005b60035481101561183d57600281815481106117b2576117b1612d3b565b5b9060005260206000200160009054906101000a900473ffffffffffffffffffffffffffffffffffffffff168282815181106117f0576117ef612d3b565b5b602002602001019073ffffffffffffffffffffffffffffffffffffffff16908173ffffffffffffffffffffffffffffffffffffffff1681525050808061183590612c65565b915050611794565b508091505090565b61184d611bc2565b73ffffffffffffffffffffffffffffffffffffffff1661186b61118a565b73ffffffffffffffffffffffffffffffffffffffff16146118c1576040517f08c379a00000000000000000000000000000000000000000000000000000000081526004016118b8906128cf565b60405180910390fd5b600073ffffffffffffffffffffffffffffffffffffffff168173ffffffffffffffffffffffffffffffffffffffff161415611931576040517f08c379a00000000000000000000000000000000000000000000000000000000081526004016119289061280f565b60405180910390fd5b61193a81611e2b565b50565b600160003373ffffffffffffffffffffffffffffffffffffffff1673ffffffffffffffffffffffffffffffffffffffff16815260200190815260200160002060009054906101000a900460ff166119c9576040517f08c379a00000000000000000000000000000000000000000000000000000000081526004016119c09061284f565b60405180910390fd5b801515600760009054906101000a900460ff1615151415611a1f576040517f08c379a0000000000000000000000000000000000000000000000000000000008152600401611a169061290f565b60405180910390fd5b80600760006101000a81548160ff0219169083151502179055503373ffffffffffffffffffffffffffffffffffffffff167f31fef0a086d20bbff1d9c1f32aab42b1cedfa8c0d7093aeda9b74ba2183e3eb082604051611a7f919061274b565b60405180910390a250565b611b228282604051602401611aa0929190612788565b6040516020818303038152906040527f319af333000000000000000000000000000000000000000000000000000000007bffffffffffffffffffffffffffffffffffffffffffffffffffffffff19166020820180517bffffffffffffffffffffffffffffffffffffffffffffffffffffffff8381831617835250505050611eef565b5050565b611bbe8282604051602401611b3c9291906127b8565b6040516020818303038152906040527f4b5c4277000000000000000000000000000000000000000000000000000000007bffffffffffffffffffffffffffffffffffffffffffffffffffffffff19166020820180517bffffffffffffffffffffffffffffffffffffffffffffffffffffffff8381831617835250505050611eef565b5050565b600033905090565b611bd2611bc2565b73ffffffffffffffffffffffffffffffffffffffff16611bf061118a565b73ffffffffffffffffffffffffffffffffffffffff1614611c46576040517f08c379a0000000000000000000000000000000000000000000000000000000008152600401611c3d906128cf565b60405180910390fd5b6000805b600354811015611de65760028181548110611c6857611c67612d3b565b5b9060005260206000200160009054906101000a900473ffffffffffffffffffffffffffffffffffffffff1673ffffffffffffffffffffffffffffffffffffffff168373ffffffffffffffffffffffffffffffffffffffff161415611dd35760026001600354611cd79190612b1a565b81548110611ce857611ce7612d3b565b5b9060005260206000200160009054906101000a900473ffffffffffffffffffffffffffffffffffffffff1660028281548110611d2757611d26612d3b565b5b9060005260206000200160006101000a81548173ffffffffffffffffffffffffffffffffffffffff021916908373ffffffffffffffffffffffffffffffffffffffff1602179055506002805480611d8157611d80612d0c565b5b6001900381819060005260206000200160006101000a81549073ffffffffffffffffffffffffffffffffffffffff0219169055905560036000815480929190611dc990612bd8565b9190505550600191505b8080611dde90612c65565b915050611c4a565b5080611e27576040517f08c379a0000000000000000000000000000000000000000000000000000000008152600401611e1e9061294f565b60405180910390fd5b5050565b60008060009054906101000a900473ffffffffffffffffffffffffffffffffffffffff169050816000806101000a81548173ffffffffffffffffffffffffffffffffffffffff021916908373ffffffffffffffffffffffffffffffffffffffff1602179055508173ffffffffffffffffffffffffffffffffffffffff168173ffffffffffffffffffffffffffffffffffffffff167f8be0079c531659141344cd1fd0a4f28419497f9722a3daafe3b4186f6b6457e060405160405180910390a35050565b60008151905060006a636f6e736f6c652e6c6f679050602083016000808483855afa5050505050565b828054611f2490612c02565b90600052602060002090601f016020900481019282611f465760008555611f94565b82601f10611f575780548555611f94565b82800160010185558215611f9457600052602060002091601f016020900482015b82811115611f93578254825591600101919060010190611f78565b5b509050611fa19190612085565b5090565b508054611fb190612c02565b6000825580601f10611fc35750611fe2565b601f016020900490600052602060002090810190611fe19190612085565b5b50565b828054611ff190612c02565b90600052602060002090601f016020900481019282612013576000855561205a565b82601f1061202c57805160ff191683800117855561205a565b8280016001018555821561205a579182015b8281111561205957825182559160200191906001019061203e565b5b5090506120679190612085565b5090565b604051806040016040528060608152602001600081525090565b5b8082111561209e576000816000905550600101612086565b5090565b60006120b56120b084612a11565b6129ec565b9050828152602081018484840111156120d1576120d0612d9e565b5b6120dc848285612b96565b509392505050565b6000813590506120f381613094565b92915050565b600081359050612108816130ab565b92915050565b600082601f83011261212357612122612d99565b5b81356121338482602086016120a2565b91505092915050565b60008135905061214b816130c2565b92915050565b60006020828403121561216757612166612da8565b5b6000612175848285016120e4565b91505092915050565b60006020828403121561219457612193612da8565b5b60006121a2848285016120f9565b91505092915050565b6000602082840312156121c1576121c0612da8565b5b600082013567ffffffffffffffff8111156121df576121de612da3565b5b6121eb8482850161210e565b91505092915050565b60006020828403121561220a57612209612da8565b5b60006122188482850161213c565b91505092915050565b600061222d8383612261565b60208301905092915050565b600061224583836123d6565b905092915050565b60006122598383612632565b905092915050565b61226a81612b4e565b82525050565b61227981612b4e565b82525050565b600061228a82612a72565b6122948185612ac5565b935061229f83612a42565b8060005b838110156122d05781516122b78882612221565b97506122c283612a9e565b9250506001810190506122a3565b5085935050505092915050565b60006122e882612a7d565b6122f28185612ad6565b93508360208202850161230485612a52565b8060005b8581101561234057848403895281516123218582612239565b945061232c83612aab565b925060208a01995050600181019050612308565b50829750879550505050505092915050565b600061235d82612a88565b6123678185612ae7565b93508360208202850161237985612a62565b8060005b858110156123b55784840389528151612396858261224d565b94506123a183612ab8565b925060208a0199505060018101905061237d565b50829750879550505050505092915050565b6123d081612b60565b82525050565b60006123e182612a93565b6123eb8185612af8565b93506123fb818560208601612ba5565b61240481612dad565b840191505092915050565b600061241a82612a93565b6124248185612b09565b9350612434818560208601612ba5565b61243d81612dad565b840191505092915050565b6000612455600d83612b09565b915061246082612dbe565b602082019050919050565b6000612478602683612b09565b915061248382612de7565b604082019050919050565b600061249b601783612b09565b91506124a682612e36565b602082019050919050565b60006124be600c83612b09565b91506124c982612e5f565b602082019050919050565b60006124e1601d83612b09565b91506124ec82612e88565b602082019050919050565b6000612504601983612b09565b915061250f82612eb1565b602082019050919050565b6000612527601683612b09565b915061253282612eda565b602082019050919050565b600061254a602083612b09565b915061255582612f03565b602082019050919050565b600061256d601983612b09565b915061257882612f2c565b602082019050919050565b6000612590601e83612b09565b915061259b82612f55565b602082019050919050565b60006125b3604b83612b09565b91506125be82612f7e565b606082019050919050565b60006125d6602383612b09565b91506125e182612ff3565b604082019050919050565b60006125f9601683612b09565b915061260482613042565b602082019050919050565b600061261c601683612b09565b91506126278261306b565b602082019050919050565b6000604083016000830151848203600086015261264f82826123d6565b915050602083015161266460208601826126ac565b508091505092915050565b6000604083016000830151848203600086015261268c82826123d6565b91505060208301516126a160208601826126ac565b508091505092915050565b6126b581612b8c565b82525050565b6126c481612b8c565b82525050565b60006020820190506126df6000830184612270565b92915050565b600060208201905081810360008301526126ff818461227f565b905092915050565b6000602082019050818103600083015261272181846122dd565b905092915050565b600060208201905081810360008301526127438184612352565b905092915050565b600060208201905061276060008301846123c7565b92915050565b60006020820190508181036000830152612780818461240f565b905092915050565b600060408201905081810360008301526127a2818561240f565b90506127b16020830184612270565b9392505050565b600060408201905081810360008301526127d2818561240f565b905081810360208301526127e6818461240f565b90509392505050565b6000602082019050818103600083015261280881612448565b9050919050565b600060208201905081810360008301526128288161246b565b9050919050565b600060208201905081810360008301526128488161248e565b9050919050565b60006020820190508181036000830152612868816124b1565b9050919050565b60006020820190508181036000830152612888816124d4565b9050919050565b600060208201905081810360008301526128a8816124f7565b9050919050565b600060208201905081810360008301526128c88161251a565b9050919050565b600060208201905081810360008301526128e88161253d565b9050919050565b6000602082019050818103600083015261290881612560565b9050919050565b6000602082019050818103600083015261292881612583565b9050919050565b60006020820190508181036000830152612948816125a6565b9050919050565b60006020820190508181036000830152612968816125c9565b9050919050565b60006020820190508181036000830152612988816125ec565b9050919050565b600060208201905081810360008301526129a88161260f565b9050919050565b600060208201905081810360008301526129c9818461266f565b905092915050565b60006020820190506129e660008301846126bb565b92915050565b60006129f6612a07565b9050612a028282612c34565b919050565b6000604051905090565b600067ffffffffffffffff821115612a2c57612a2b612d6a565b5b612a3582612dad565b9050602081019050919050565b6000819050602082019050919050565b6000819050602082019050919050565b6000819050602082019050919050565b600081519050919050565b600081519050919050565b600081519050919050565b600081519050919050565b6000602082019050919050565b6000602082019050919050565b6000602082019050919050565b600082825260208201905092915050565b600082825260208201905092915050565b600082825260208201905092915050565b600082825260208201905092915050565b600082825260208201905092915050565b6000612b2582612b8c565b9150612b3083612b8c565b925082821015612b4357612b42612cae565b5b828203905092915050565b6000612b5982612b6c565b9050919050565b60008115159050919050565b600073ffffffffffffffffffffffffffffffffffffffff82169050919050565b6000819050919050565b82818337600083830152505050565b60005b83811015612bc3578082015181840152602081019050612ba8565b83811115612bd2576000848401525b50505050565b6000612be382612b8c565b91506000821415612bf757612bf6612cae565b5b600182039050919050565b60006002820490506001821680612c1a57607f821691505b60208210811415612c2e57612c2d612cdd565b5b50919050565b612c3d82612dad565b810181811067ffffffffffffffff82111715612c5c57612c5b612d6a565b5b80604052505050565b6000612c7082612b8c565b91507fffffffffffffffffffffffffffffffffffffffffffffffffffffffffffffffff821415612ca357612ca2612cae565b5b600182019050919050565b7f4e487b7100000000000000000000000000000000000000000000000000000000600052601160045260246000fd5b7f4e487b7100000000000000000000000000000000000000000000000000000000600052602260045260246000fd5b7f4e487b7100000000000000000000000000000000000000000000000000000000600052603160045260246000fd5b7f4e487b7100000000000000000000000000000000000000000000000000000000600052603260045260246000fd5b7f4e487b7100000000000000000000000000000000000000000000000000000000600052604160045260246000fd5b600080fd5b600080fd5b600080fd5b600080fd5b6000601f19601f8301169050919050565b7f416c72656164792061646d696e00000000000000000000000000000000000000600082015250565b7f4f776e61626c653a206e6577206f776e657220697320746865207a65726f206160008201527f6464726573730000000000000000000000000000000000000000000000000000602082015250565b7f4e6f2063616e6469646174652072656769737465726564000000000000000000600082015250565b7f4e6f7420616e2061646d696e0000000000000000000000000000000000000000600082015250565b7f5468652073657373696f6e206861766520746f20626520636c6f736564000000600082015250565b7f50726f76696465206120636f7272656374206164647265737300000000000000600082015250565b7f4f6e6c79206f6e6520766f746520627920766f74657200000000000000000000600082015250565b7f4f776e61626c653a2063616c6c6572206973206e6f7420746865206f776e6572600082015250565b7f566f74696e672073657373696f6e206e6f74206f70656e656400000000000000600082015250565b7f53657373696f6e20616c726561647920696e2074686973207374617475730000600082015250565b7f43616e6e6f742072656d6f766520636f6e7472616374206f776e65722066726f60008201527f6d2061646d696e6973747261746f72732c207472616e73666572206f776e657260208201527f73686970206265666f7265000000000000000000000000000000000000000000604082015250565b7f546563686e6963616c206572726f72203a2061646d696e206e6f742072656d6f60008201527f7665640000000000000000000000000000000000000000000000000000000000602082015250565b7f43616e646964617465206964206e6f7420657869737400000000000000000000600082015250565b7f5469652077696e6e6572206e6f7420616c6c6f77656400000000000000000000600082015250565b61309d81612b4e565b81146130a857600080fd5b50565b6130b481612b60565b81146130bf57600080fd5b50565b6130cb81612b8c565b81146130d657600080fd5b5056fea2646970667358221220e08bf7678baa7526a74143a84c02f85ded5dc91280a549a296462151fd745bc564736f6c63430008070033",
  "linkReferences": {},
  "deployedLinkReferences": {}
}